:100000000C942A000C9434000C9434000C943400AA
:100010000C9434000C9434000C9434000C94340090
:100020000C9434000C9434000C9434000C94340080
:100030000C9434000C9434000C9434000C94340070
:100040000C9434000C9434000C9434000C94340060
:100050000C94340011241FBECFE5D4E0DEBFCDBF29
:100060000E9436000C946F000C9400008FEF87BB49
:1000700011BAF1E0E8E074E062E050E140E230E41F
:1000800020E880B390E08130910511F4F8BB0FC0F7
:100090008230910511F468BB0FC08430910511F4D2
:1000A00078BB0FC08830910511F4E8BB0FC08031D8
:1000B000910511F458BBE5CF8032910511F448BB8E
:1000C000E0CF8034910511F438BBDBCF8038910547
:1000D00011F428BBD6CF892BA1F618BAD2CFF89449
:0200E000FFCF50
:00000001FF
