:100000000C942A000C9434000C9434000C943400AA
:100010000C9434000C9434000C9434000C94340090
:100020000C9434000C9434000C9434000C94340080
:100030000C9434000C9434000C9434000C94340070
:100040000C9434000C9434000C9434000C94340060
:100050000C94340011241FBECFE5D4E0DEBFCDBF29
:100060000E9436000C944D000C9400008FEF87BB6B
:100070005AEA29E130E045E558BB88E893E1F90107
:100080003197F1F70197D9F748BB88E893E1F90177
:0E0090003197F1F70197D9F7EFCFF894FFCF32
:00000001FF
