:100000000C942A000C943F000C943F000C943F0089
:100010000C943F000C943F000C943F000C943F0064
:100020000C943F000C943F000C943F000C943F0054
:100030000C943F000C943F000C943F000C943F0044
:100040000C943F000C943F000C943F000C943F0034
:100050000C943F0011241FBECFE5D4E0DEBFCDBF1E
:1000600010E0A0E6B0E0ECE0F1E002C005900D92F7
:10007000A437B107D9F70E9441000C9484000C9476
:100080000000EF92FF920F931F93DF93CF93CDB7B2
:10009000DEB764970FB6F894DEBF0FBECDBFDE01AA
:1000A0001196E0E6F0E084E101900D928150E1F7D5
:1000B0008FEF87BB84BB20E030E0BE016F5F7F4FD6
:1000C00099E1E92EF12C8E010B5E1F4F15C048BB44
:1000D000808185BB88E893E1D7011197F1F70197FB
:1000E000D9F73296E017F10791F72F5F3F4F2A308B
:1000F000310514F020E030E0F901EE0FFF1FE60FAC
:0C010000F71F4081FB01E3CFF894FFCF14
:10010C003F0006005B004F0066006D00FD0007001D
:04011C007F006F00F1
:00000001FF
