:100000000C942A000C9434000C9434000C943400AA
:100010000C9434000C9434000C9434000C94340090
:100020000C9434000C9434000C9434000C94340080
:100030000C9434000C9434000C9434000C94340070
:100040000C9434000C9434000C9434000C94340060
:100050000C94340011241FBECFE5D4E0DEBFCDBF29
:100060000E9436000C948D000C9400000F931F9397
:100070008FEF87BB29E130E001E012E0B4E0A8E0B7
:1000800070E160E250E440E818BA88E893E1F901D1
:100090003197F1F70197D9F708BB88E893E1F901A7
:1000A0003197F1F70197D9F718BB88E893E1F90187
:1000B0003197F1F70197D9F7B8BB88E893E1F901D7
:1000C0003197F1F70197D9F7A8BB88E893E1F901D7
:1000D0003197F1F70197D9F778BB88E893E1F901F7
:1000E0003197F1F70197D9F768BB88E893E1F901F7
:1000F0003197F1F70197D9F758BB88E893E1F901F7
:100100003197F1F70197D9F748BB88E893E1F901F6
:0E0110003197F1F70197D9F7B7CFF894FFCFE9
:00000001FF
