:100000000C942A000C9434000C9434000C943400AA
:100010000C9434000C9434000C9434000C94340090
:100020000C9434000C9434000C9434000C94340080
:100030000C9434000C9434000C9434000C94340070
:100040000C9434000C9434000C9434000C94340060
:100050000C94340011241FBECFE5D4E0DEBFCDBF29
:100060000E9498040C949E040C94000020E030E060
:10007000EFEF7EE74AEF50E068E8E8BB72BBCA01E9
:100080000197F1F718BA68BB12BACA010197F1F7E4
:1000900018BA2F5F3F4F2436310579F7089520E0D5
:1000A00030E0EFEF6EE74AEF50E079E8E8BB62BB83
:1000B000CA010197F1F718BA68BB62BBCA01019780
:1000C000F1F718BA78BB12BACA010197F1F718BA5A
:1000D0002F5F3F4F2436310549F7089520E030E087
:1000E000EFEF7EEF4AEF50E061E8E8BB72BBCA0178
:1000F0000197F1F718BA68BB12BACA010197F1F774
:1001000018BA2F5F3F4F2436310579F7089520E064
:1001100030E0BFEFAEEF4AEF50E0F1E8E0E87EE715
:100120006FE7B8BBA2BBCA010197F1F718BAF8BBD9
:10013000E2BBCA010197F1F718BA78BB62BBCA01EA
:100140000197F1F718BA2F5F3F4F2436310549F771
:10015000089520E030E0EFEF7EEF4AEF50E069E8ED
:10016000E8BB72BBCA010197F1F718BA68BB12BAB3
:10017000CA010197F1F718BA2F5F3F4F24363105B6
:1001800079F7089520E030E0EFEF7EEF4AEF50E09E
:1001900060E9E8BB72BBCA010197F1F718BA68BB06
:1001A00012BACA010197F1F718BA2F5F3F4F2436F0
:1001B000310579F70895FF920F931F9320E030E007
:1001C00080E8F82E4AEF50E00FE71EEFB1E0A0EF15
:1001D000FFE0E7EB78E067ECF8BA12BACA010197E2
:1001E000F1F718BA08BB12BBCA010197F1F718BAA8
:1001F000B8BBA2BBCA010197F1F718BAF8BBE2BBC2
:10020000CA010197F1F718BA78BB62BBCA0101971E
:10021000F1F718BA2F5F3F4F24363105E9F61F91E9
:100220000F91FF90089520E030E0EFEF7EE74AEF76
:1002300050E060E1E8BB72BBCA010197F1F718BA60
:1002400068BB12BACA010197F1F718BA2F5F3F4F86
:100250002436310579F7089520E030E0EFEF7FEEA6
:100260004AEF50E061E8E8BB72BBCA010197F1F7C1
:1002700018BA68BB12BACA010197F1F718BA2F5F12
:100280003F4F2436310579F708951F9320E030E081
:1002900010E84AEF50E0BFEFAFEEF1E0E1EF77E0BA
:1002A0006DEF18BB12BACA010197F1F718BAB8BBC3
:1002B000A2BBCA010197F1F718BAF8BBE2BBCA01A9
:1002C0000197F1F718BA78BB62BBCA010197F1F741
:1002D00018BA2F5F3F4F2436310519F71F91089543
:1002E000DF92EF92FF920F931F9340E050E0DD24E6
:1002F000DA94B7EF2AEF30E062E0E62EAFEB94E05D
:10030000F92EFFEDE8E07FEE60E100E410E2D8BAFC
:10031000B2BBC9010197F1F718BAE8BAA2BBC9018B
:100320000197F1F718BAF8BAF2BBC9010197F1F7D2
:1003300018BAE8BB72BBC9010197F1F718BA68BBDC
:1003400008BBA2BBC9010197F1F718BA18BBF2BBF1
:10035000C9010197F1F718BA68BB72BBC9010197CF
:10036000F1F718BAE8BBB2BBC9010197F1F718BAA7
:100370004F5F5F4F4436510509F0C9CF1F910F9170
:10038000FF90EF90DF90089520E030E0EFEF7EEFF8
:100390004AEF50E061E0E8BB72BBCA010197F1F798
:1003A00018BA68BB12BACA010197F1F718BA2F5FE1
:1003B0003F4F2436310579F70895FF920F931F932D
:1003C00020E030E0FF24FA946EE74AEF50E000E8C6
:1003D00010E4BDEBA0E2FBEDE0E177EEF8BA62BB22
:1003E000CA010197F1F718BA08BB62BBCA010197AD
:1003F000F1F718BA18BBB2BBCA010197F1F718BAE6
:10040000A8BBF2BBCA010197F1F718BAE8BB72BBEF
:10041000CA010197F1F718BA2F5F3F4F2436310513
:10042000E9F61F910F91FF900895AF92BF92CF927E
:10043000DF92EF92FF920F931F9340E050E0AA24C7
:10044000AA94BEE7BB2E2AEF30E0A2E0CA2EFFEB53
:10045000DF2EE4E0EE2E7FEDF72E08E01FEEB0E198
:10046000A7EFF0E2EBEF70E46DEFA8BAB2BAC90102
:100470000197F1F718BAC8BAD2BAC9010197F1F7D2
:1004800018BAE8BAF2BAC9010197F1F718BA08BB6D
:1004900012BBC9010197F1F718BAB8BBA2BBC901D9
:1004A0000197F1F718BAF8BBE2BBC9010197F1F760
:1004B00018BA78BB62BBC9010197F1F718BA4F5F50
:1004C0005F4F4436510589F61F910F91FF90EF90D1
:1004D000DF90CF90BF90AF90089520E030E0EFEF35
:1004E0007EE74AEF50E061E8E8BB72BBCA010197C2
:1004F000F1F718BA68BB12BACA010197F1F718BA36
:100500002F5F3F4F2436310579F7089520E030E022
:10051000AFEFFEEF4AEF50E0E0E970EF6FE7A8BB06
:10052000F2BBCA010197F1F718BAE8BB12BACA01C7
:100530000197F1F718BA78BB62BBCA010197F1F7CE
:1005400018BA2F5F3F4F2436310549F708950F93AE
:100550001F9320E030E07EE74AEF50E061E801E0E1
:100560001FE7B2E0AFEBF4E0EFED78BB72BBCA017E
:100570000197F1F718BA68BB62BBCA010197F1F79E
:1005800018BA08BB12BBCA010197F1F718BAB8BB79
:10059000A2BBCA010197F1F718BAF8BBE2BBCA01C6
:1005A0000197F1F718BA2F5F3F4F24363105E9F66E
:1005B0001F910F910895CF92DF92EF92FF920F93C8
:1005C0001F9320E030E0CC24CA948EEFD82E4AEF5F
:1005D00050E000E9E02E10EEF12E01E61FEEB8E04B
:1005E000ADEFF4E0EBEF72E067EFC8BAD2BACA0140
:1005F0000197F1F718BAE8BAF2BACA010197F1F710
:1006000018BA08BB12BBCA010197F1F718BAB8BBF8
:10061000A2BBCA010197F1F718BAF8BBE2BBCA0145
:100620000197F1F718BA78BB62BBCA010197F1F7DD
:1006300018BA2F5F3F4F24363105B9F61F910F913D
:10064000FF90EF90DF90CF90089520E030E0A1E997
:100650004AEF50E0F0EFEEEF7FE06FE7A8BB12BA91
:10066000CA010197F1F718BAF8BBE2BBCA010197BA
:10067000F1F718BA78BB62BBCA010197F1F718BA53
:100680002F5F3F4F2436310549F7089520E030E0D1
:10069000E0E84AEF50E07FEF6FEEE8BB12BACA0124
:1006A0000197F1F718BA78BB62BBCA010197F1F75D
:1006B00018BA2F5F3F4F2436310579F7089520E0AF
:1006C00030E0EFEF7EE74AEF50E061E0E8BB72BB5D
:1006D000CA010197F1F718BA68BB12BACA010197AB
:1006E000F1F718BA2F5F3F4F2436310579F7089597
:1006F0000895FF920F931F9320E030E0FF24FA94B7
:100700006EE74AEF50E008E017EEB4E0ABEDF2E040
:10071000EDEB71E0F8BA62BBCA010197F1F718BAC4
:1007200008BB12BBCA010197F1F718BAB8BBA2BB4C
:10073000CA010197F1F718BAF8BBE2BBCA010197E9
:10074000F1F718BA78BB62BBCA010197F1F718BA82
:100750002F5F3F4F24363105E9F61F910F91FF902F
:100760000895CF92DF92EF92FF920F931F9340E094
:1007700050E0E0E8CE2EFEE72AEF30E070E4D72E1E
:10078000EDEB60E2E62E7BED90E1F92E67EE08E0FE
:1007900014E0B2E0A1E0C8BAF2BBC9010197F1F7D9
:1007A00018BAD8BAE2BBC9010197F1F718BAE8BA8A
:1007B00072BBC9010197F1F718BAF8BA62BBC90157
:1007C0000197F1F718BA08BB62BBC9010197F1F7AD
:1007D00018BA18BB72BBC9010197F1F718BAB8BBB8
:1007E000E2BBC9010197F1F718BAA8BBF2BBC90176
:1007F0000197F1F718BA4F5F5F4F4436510509F082
:10080000CACF1F910F91FF90EF90DF90CF90089586
:10081000EF92FF920F931F9320E030E0A0E8EA2EC2
:10082000FEE7FF2E4AEF50E000E41DEBB0E2ABED37
:10083000F0E1E7EE7FE067EFE8BAF2BACA010197AC
:10084000F1F718BA08BB12BBCA010197F1F718BA41
:10085000B8BBA2BBCA010197F1F718BAF8BBE2BB5B
:10086000CA010197F1F718BA78BB62BBCA010197B8
:10087000F1F718BA2F5F3F4F24363105E9F61F9183
:100880000F91FF90EF900895BF92CF92DF92EF9279
:10089000FF920F931F9340E050E091E8B92E2AEFAA
:1008A00030E080E4C82E0FEBD02E10E2E12EBFED39
:1008B000FB2E00E11FEEB8E0A7EFF4E0EBEF72E0F3
:1008C0006DEFB8BA12BAC9010197F1F718BAC8BAF0
:1008D000D2BAC9010197F1F718BAE8BAF2BAC90158
:1008E0000197F1F718BA08BB12BBC9010197F1F7DC
:1008F00018BAB8BBA2BBC9010197F1F718BAF8BB87
:10090000E2BBC9010197F1F718BA78BB62BBC90114
:100910000197F1F718BA4F5F5F4F4436510589F6DA
:100920001F910F91FF90EF90DF90CF90BF900895AF
:100930008FEF87BB81BB0E94DB00FDCFF894FFCF18
:00000001FF
