:100000000C942A000C943F000C943F000C943F0089
:100010000C943F000C943F000C943F000C943F0064
:100020000C943F000C943F000C943F000C943F0054
:100030000C943F000C943F000C943F000C943F0044
:100040000C943F000C943F000C943F000C943F0034
:100050000C943F0011241FBECFE5D4E0DEBFCDBF1E
:1000600010E0A0E6B0E0E2E9F3E002C005900D92F6
:10007000A437B107D9F70E9441000C94C7010C9432
:1000800000006F927F928F929F92AF92BF92CF9219
:10009000DF92EF92FF920F931F93DF93CF93CDB731
:1000A000DEB764970FB6F894DEBF0FBECDBFDE019A
:1000B0001196E0E6F0E084E101900D928150E1F7C5
:1000C0008FEF8ABB87BB84BB81BB49812DE130E0C8
:1000D0008E010F5F1F4FB2E48B2EA1E2DA2EF0E506
:1000E000EF2EF3ECFF2EE1E26E2E74E2972E62E229
:1000F000C62E51E4B52E91E8A92E81E8782E1FC0B6
:10010000C9016AE070E00E94A001FC01EE0FFF1F30
:10011000E00FF11F80818BBBC9016AE070E00E9493
:10012000A001FB01EE0FFF1FE00FF11F808188BBD4
:1001300075BA62BAC7010197F1F72150304037FF15
:10014000DFCF25E030E0C9016AE070E00E94A00145
:10015000FC01EE0FFF1FE00FF11F80818BBB48BB3E
:1001600085BAD2BAC7010197F1F7215030408FEF1D
:100170002F3F380741F72DE130E0C9016AE070E018
:100180000E94A001FC01EE0FFF1FE00FF11F808114
:100190008BBBC9016AE070E00E94A001FB01EE0F79
:1001A000FF1FE00FF11F808188BB95BAD2BAC7014B
:1001B0000197F1F7215030408FEF2F3F3807E9F6D4
:1001C00025E030E0C9016AE070E00E94A001FC0176
:1001D000EE0FFF1FE00FF11F80818BBB48BBC5BA3C
:1001E000B2BAC7010197F1F7215030408FEF2F3F8E
:1001F000380741F72DE130E0C9016AE070E00E9464
:10020000A001FC01EE0FFF1FE00FF11F80818BBBEF
:10021000C9016AE070E00E94A001FB01EE0FFF1F20
:10022000E00FF11F808188BBD5BAA2BAC701019740
:10023000F1F7215030408FEF2F3F3807E9F625E0E6
:1002400030E0C9016AE070E00E94A001FC01EE0FFD
:10025000FF1FE00FF11F80818BBB48BBD5BA82BA6C
:10026000C7010197F1F7215030408FEF2F3F38073A
:1002700041F72DE130E0C9016AE070E00E94A00181
:10028000FC01EE0FFF1FE00FF11F80818BBBC90146
:100290006AE070E00E94A001FB01EE0FFF1FE00F7B
:1002A000F11F808188BBD5BA92BAC7010197F1F7D7
:1002B000215030408FEF2F3F3807E9F625E030E03E
:1002C000C9016AE070E00E94A001FC01EE0FFF1F6F
:1002D000E00FF11F80818BBB48BBB5BAC2BAC70122
:1002E0000197F1F7215030408FEF2F3F380741F74A
:1002F0002DE130E0C9016AE070E00E94A001FC013C
:10030000EE0FFF1FE00FF11F80818BBBC9016AE078
:1003100070E00E94A001FB01EE0FFF1FE00FF11F34
:10032000808188BBA5BAD2BAC7010197F1F72150E5
:1003300030408FEF2F3F3807E9F62DE130E0E0CE77
:1003400097FB092E07260AD077FD04D00CD006D0E3
:1003500000201AF4709561957F4F0895F6F79095F7
:1003600081959F4F0895AA1BBB1B51E107C0AA1F8F
:10037000BB1FA617B70710F0A61BB70B881F991F46
:100380005A95A9F780959095BC01CD010895F894F0
:02039000FFCF9D
:100392003F0006005B004F0066006D00FD00070095
:0403A2007F006F0069
:00000001FF
