:100000000C942A000C943F000C943F000C943F0089
:100010000C943F000C943F000C943F000C943F0064
:100020000C943F000C943F000C943F000C943F0054
:100030000C943F000C943F000C943F000C943F0044
:100040000C943F000C943F000C943F000C943F0034
:100050000C943F0011241FBECFE5D4E0DEBFCDBF1E
:1000600011E0A0E6B0E0E4EDF0E302C005900D92EF
:10007000AA36B107D9F70E9499010C9468180C941C
:10008000000088BBC098C198C29A8AEF90E001979F
:10009000F1F7C298089588BBC09AC198C29A8AEFB6
:1000A00090E00197F1F7C29808950F931F93082FDE
:1000B000807F0E944100802F8295807F0E944100B6
:1000C0001F910F9108950F931F93082F807F0E9417
:1000D0004B00802F8295807F0E944B001F910F91D3
:1000E0000895CF93DF93EC0102C00E9463008991D1
:1000F0008823D9F7DF91CF9108950F931F938C0137
:1001000084E00E945500C8016AE070E00E94C917AF
:10011000805D0E946300C8016AE070E00E94C91718
:10012000162F072F86E00E945500812F902F6AE03E
:1001300070E00E94C917805D0E9463001F910F91BB
:10014000089582E00E94550088E20E94550086E0F2
:100150000E9455008CE00E94550008952F923F9216
:100160004F925F926F927F928F929F92AF92BF92C7
:10017000CF92DF92EF92FF920F931F931CC084E007
:100180000E9455009101A201B301C401FAE0AF2E13
:10019000BB24CC24DD24EE24FF2400E010E00E94E8
:1001A0008C0F822F805D0E9463009101A201B30138
:1001B000C4010E94640719012A013B014C01191472
:1001C000F4F2992081F58823D1F67720C1F66623D1
:1001D000B1F65520A1F6442391F6332081F68AE04A
:1001E000821768F220C086E00E9455009101A201AA
:1001F000B301C401EAE0AE2EBB24CC24DD24EE24FE
:10020000FF2400E010E00E948C0F822F805D0E948E
:1002100063009101A201B301C4010E9464071901A6
:100220002A013B014C01822D8329842985298629B5
:10023000872988298929B9F61F910F91FF90EF909E
:10024000DF90CF90BF90AF909F908F907F906F90F6
:100250005F904F903F902F9008955FEF4EEF3DEFEE
:100260002BEF97EF53BB4BBB83B38E3F19F425E1C4
:1002700030E05DC083B38D3F19F420E030E057C01B
:1002800083B38B3F19F42EE030E051C083B3873F36
:1002900019F42AE030E04BC03BBB83B38E3F19F426
:1002A00021E030E044C083B38D3F19F422E030E018
:1002B0003EC083B38B3F19F423E030E038C083B3F2
:1002C000873F19F42BE030E032C02BBB83B38E3F65
:1002D00019F424E030E02BC083B38D3F19F425E0FE
:1002E00030E025C083B38B3F19F426E030E01FC017
:1002F00083B3873F19F42CE030E019C09BBB83B374
:100300008E3F19F427E030E012C083B38D3F19F41B
:1003100028E030E00CC083B38B3F19F429E030E0D3
:1003200006C083B3873F09F09DCF2DE030E0C901BF
:1003300008952F923F924F925F926F927F928F9289
:100340009F92AF92BF92CF92DF92EF92FF920F9364
:100350001F93DF93CF93CDB7DEB7A1970FB6F89475
:10036000DEBF0FBECDBF8FEF8ABB87BB14BA82E062
:100370000E94550088E20E94550086E00E945500C8
:100380008CE00E9455001A8E1B8E1C8E1D8E1E8EB8
:100390001F8E18A219A21F8A188E222433244424E7
:1003A00055246624198E0E942D019C01330F220BC7
:1003B000322F882E99872A872B872C872D872E8787
:1003C000722E45E1841761F5992351F5222341F5F9
:1003D00082E00E94550088E20E94550086E00E945B
:1003E00055008CE00E94550081E00E9455001A8E55
:1003F0001B8E1C8E1D8E1E8E1F8E18A219A21F8A88
:10040000188E22243324442455246624198E1982FC
:100410001A821B821C821D821E821F821886C3CFF5
:10042000F82DFA5091E0F81508F090E08985815098
:1004300021E0A9858A1708F020E0E92FE80F91E074
:10044000E81708F090E0292B8A85815031E0BA85C1
:100450008B1708F030E0722F780F91E0781708F0D2
:1004600090E0392B8B85815021E04B85841708F073
:1004700020E0632F680F91E0681708F090E0292BC7
:100480008C85815031E09C85891708F030E0522F2F
:10049000580F91E0581708F090E0392B8D85815066
:1004A00021E0AD858A1708F020E0432F480F91E046
:1004B000481708F090E0292B8E85815091E0BE8589
:1004C0008B1708F090E0322F380F21E0381708F032
:1004D00020E0922B7A94970D7394992309F0A7C288
:1004E000332309F0A4C2442309F0A1C2552309F023
:1004F0009EC2662309F09BC2772309F098C2EE23BF
:1005000009F095C2F53008F092C2FBC0ED891E16C5
:100510000CF4F7C0EE23E1F4FC89FF2309F0F1C0ED
:100520003B89332309F0EDC04A89442309F0E9C02F
:100530008989882309F0E5C09889992309F0E1C0E9
:10054000AF85AA2309F0DDC0B9E0B91508F4D9C018
:100550002A8D3B8D4C8D5D8D6E8D7F8D88A199A1EF
:1005600001E00E94E506122FF32EE42ED52EC62EB2
:10057000B72EA82E9E8B02E00E94E506210FE1E037
:10058000211708F0E0E03F0DF1E03F1508F0F0E042
:10059000AE2FA30FE1E0A31708F0E0E0FE2B4E0D15
:1005A000E1E04E1508F0E0E01F2F140F31E01417C2
:1005B00008F030E0E32B5D0D41E05D1508F040E010
:1005C000FE2EF50E31E0F51608F030E0432B6C0DF1
:1005D00051E06C1508F050E0B42FB60F31E0B617BB
:1005E00008F030E0532B7B0D41E07B1508F040E034
:1005F000652F670F31E0671708F030E0432B8A0D55
:1006000051E08A1508F050E0742F780F31E0781728
:1006100008F030E0452F432BEE899E0F490F022F43
:10062000090D91E0021708F090E08F858A0F21E014
:100630008A1708F020E0A92FA80F91E0A81708F06A
:1006400090E0292B8889810F31E0811708F030E094
:10065000E22EE80E91E0E81608F090E0392B898947
:100660008F0D21E08F1508F020E0F32EF80E91E0B9
:10067000F81608F090E0292B8A898B0F31E08B1750
:1006800008F030E0522F580F91E0581708F090E032
:10069000392B8B89860F21E0861708F020E0380F70
:1006A00091E0381708F090E0292B8C89870F11E032
:1006B000871708F010E0280F91E0281708F090E065
:1006C000192BFD894F0F140F0A8FAB8FEC8EFD8E07
:1006D0005E8F3F8F28A319A38FEC0E9455002A8DAF
:1006E0003B8D4C8D5D8D6E8D7F8D88A1912F0E94ED
:1006F000AE0088E893E1E9E1F0E03197F1F7019786
:10070000D1F70E942D019C01330F220B322F982E1E
:100710009F87288B298B2A8B2B8B2C8B2D8B4EE044
:10072000841709F0F3CE992309F0F0CE222309F0C3
:10073000EDCEAA8CBB8CCC8CDD8CEE8CFF8C08A112
:1007400019A18AE0881609F076C09985992309F0E5
:100750005DC1AA85AA2309F059C1BB85BB2309F055
:1007600055C1EC85EE2309F051C1FD85FF2309F049
:100770004DC13E85332309F049C1772009F046C1B8
:100780002F892A0D91E02A1508F090E0888D8B0DB5
:1007900041E08B1508F040E0392F380F91E0381711
:1007A00008F090E0492B8C2D820D51E08C1508F05B
:1007B00050E0480F91E0481708F090E0592B8D2D3C
:1007C000830D61E08D1508F060E0580F91E0581737
:1007D00008F090E0692B8E2D840D71E08E1508F0E5
:1007E00070E0680F91E0681708F090E0792B8F2D8A
:1007F000850DF1E08F1508F0F0E0780F91E07817A3
:1008000008F090E0F92BE02FE60DA1E0E01708F0EA
:10081000A0E08F2F8E0F91E08E1708F090E0A92BAB
:10082000998D190F29833A834B835C836D837E8373
:100830008F83A10F89C0ABE08A1609F087C0B98504
:10084000BB2309F0E3C0EA85EE2309F0DFC0FB8596
:10085000FF2309F0DBC03C85332309F0D7C04D8569
:10086000442309F0D3C08E85882309F0CFC07720B8
:1008700009F0CCC02F892A1991E0AF89A21708F09E
:1008800090E0B88DBB19BB2E41E0E88DEB1708F066
:1008900040E03B2D391B91E0B31608F090E0492B66
:1008A000F22DFC19CF2E51E02F1608F050E08C2DC0
:1008B000841B482F91E0C81608F090E0592B932D27
:1008C0009D19D92E61E0391608F060E0AD2DA51B09
:1008D0005A2F91E0DA1608F090E0692BB42DBE197A
:1008E000EB2E71E04B1608F070E0EE2DE61B6E2F3C
:1008F00091E0EE1608F090E0792BF52DFF19FF2E10
:10090000E1E05F1608F0E0E08F2D871B782F91E083
:10091000F81608F090E0E92B962D901B092FF1E0D6
:10092000691608F0F0E0802F8E1B91E0081708F0A0
:1009300090E0F92BA98DA11B29833A834B835C831B
:100940006D837E838F83AF1BA88760C0BCE08B164E
:1009500041F5E985EE2309F059C0FA85FF2309F036
:1009600055C03B85332309F051C04C85442309F021
:100970004DC08D85882309F049C09E85992309F0D3
:1009800045C0772009F042C09501A601B701C80112
:10099000AF88B88C61017201062D198D0E94EA059D
:1009A00028C0ADE08A1691F5B985BB2379F5EA85B3
:1009B000EE2361F5FB85FF2349F53C85332331F5B3
:1009C0004D85442319F58E85882301F57720F1F4B0
:1009D0008A2D8B298C298D298E298F29802B812B7B
:1009E00089F02F89388DA101B201862D998D0E9441
:1009F000640729833A834B835C836D837E838F8373
:100A0000988704C080E690E00E94710081E00E9417
:100A100055008FE80E94550029813A814B815C8105
:100A20006D817E818F8198850E94AE00BCCC2F891C
:100A3000388DA101B201862D998D01E00E94E50655
:100A4000122FF32EE42ED52EC62EB72EA82E992EB9
:100A500002E00E94E506210FE1E0211708F0E0E046
:100A60003F0DF1E03F1508F0F0E0AE2FA30FE1E0FD
:100A7000A31708F0E0E0FE2B4E0DE1E04E1508F064
:100A8000E0E01F2F140F31E0141708F030E0E32BE3
:100A90005D0D41E05D1508F040E0FE2EF50E31E001
:100AA000F51608F030E0432B6C0D51E06C1508F0A2
:100AB00050E0B42FB60F31E0B61708F030E0532BFA
:100AC0007B0D41E07B1508F040E0652F670F31E0BA
:100AD000671708F030E0432B8A0D51E08A1508F0C3
:100AE00050E0742F780F31E0781708F030E0452F90
:100AF000432B990D490F022F080D91E0021708F0C2
:100B000090E089858A0F21E08A1708F020E0A92F5C
:100B1000A80F91E0A81708F090E0292B8A85810F93
:100B200031E0811708F030E0E22EE80E91E0E8169F
:100B300008F090E0392B8B858F0D21E08F1508F0A0
:100B400020E0F32EF80E91E0F81608F090E0292B43
:100B50008C858B0F31E08B1708F030E0522F580F47
:100B600091E0581708F090E0392B8D85860F21E031
:100B7000861708F020E0380F91E0381708F090E071
:100B8000292B8E85870F11E0871708F010E0280FBA
:100B900091E0281708F090E0192B470D140F0F8BE8
:100BA000A88F1701452E532E622E198F8FE80E94B1
:100BB00055002F89388DA701B201862D912F0E94F3
:100BC000AE0088E893E1E9E1F0E03197F1F70197B1
:100BD000D1F7E9CBA0E3B0E0E0EFF5E00C943118F9
:100BE000A8E04E010894811C911CF401BA2F1192C7
:100BF000BA95E9F729833A834B835C836D837E83BF
:100C00008F839887CE010996FC011192AA95E9F786
:100C1000A986BA86CB86DC86ED86FE860F87188B82
:100C200029813A814B815C812DA73EA74FA758AB04
:100C300079018A018FEF9FEFA0E0B0E0E822F9226E
:100C40000A231B231A014424552429853A854B8500
:100C50005C8529A73AA74BA75CA759016A01A8227E
:100C6000B922CA22DB223A0188249924C601B5019F
:100C7000A80197010E94DC176DA37EA38FA398A7FC
:100C8000C401B3010E94DC1769A37AA38BA39CA3C0
:100C9000C601B501A20191010E94DC177B018C0104
:100CA000C401B3010E94DC175B016C0189A19AA108
:100CB000ABA1BCA18E0D9F1DA01FB11F89A39AA33C
:100CC000ABA3BCA32DA13EA14FA158A5CA01AA2741
:100CD000BB2729A13AA14BA15CA1280F391F4A1FAC
:100CE0005B1F29A33AA34BA35CA32E153F05400726
:100CF000510740F480E090E0A1E0B0E0A80EB91EFA
:100D0000CA1EDB1E89A19AA1ABA1BCA19D014427EB
:100D100055272A0D3B1D4C1D5D1D2D8F3E8F4F8F7E
:100D200058A36C01BB24AA248DA19EA1AFA1B8A594
:100D3000A070B070A80EB91ECA1EDB1EA98EBA8E96
:100D4000CB8EDC8E9A8C8B8C7C8C9E8D6F8D78A15B
:100D5000FE01719688E0DF011D928A95E9F72D8BDF
:100D60009E8B6F8B788F2D853E854F8558896DA51D
:100D70007EA58FA598A90E94DC177B018C012D818F
:100D80003E814F81588569A57AA58BA59CA50E94B7
:100D9000DC17E60EF71E081F191F6D897E898F89E3
:100DA000988D6E0D7F1D801F911F6D8B7E8B8F8B9D
:100DB000988FEE892A2D392D482D572D7E2F8F891A
:100DC000988DE096E2E10C944D18EF92FF920F930C
:100DD000DF93CF93CDB7DEB760970FB6F894DEBF41
:100DE0000FBECDBFA82F002309F461C07E01089477
:100DF000E11CF11C88E0F70111928A95E9F729833B
:100E00003A834B835C836D837E83AF83988780E2D4
:100E1000801BE82FFF27E7FDF09549815A816B8100
:100E20007C81181684F019861A861B861C868827F2
:100E300099278E1B9F0B04C0440F551F661F771FF9
:100E40008A95D2F728C0202F332727FD3095DB0164
:100E5000CA01022E04C0880F991FAA1FBB1F0A9443
:100E6000D2F789879A87AB87BC8704C07695679548
:100E700057954795EA95D2F78D819E81AF81B885C8
:100E800004C0880F991FAA1FBB1F2A95D2F7482BB1
:100E9000592B6A2B7B2B4D875E876F87788B298533
:100EA0003A854B855C856D857E85AF8598898A2FCF
:100EB00060960FB6F894DEBF0FBECDBFCF91DF9125
:100EC0000F91FF90EF900895A2E7B0E0EAE6F7E017
:100ED0000C943118982E892E712E88E0FE013196DF
:100EE000DF01682E1D926A94E9F729833A834B83C8
:100EF0005C836D837E839F829887FE013996DF0134
:100F00001D928A95E9F7A986BA86CB86DC86ED869E
:100F1000FE860F87188B8D819E81AF81B885B7FDC6
:100F200007C0E1961CAE1DAE1EAE1FAEE19764C0B9
:100F3000219581E0121608F080E0319591E01316BA
:100F400008F090E0B32FB81B81E03B1708F080E079
:100F5000982B419531E0141608F030E0A42FA91B1E
:100F600081E04A1708F080E0382B519591E0151682
:100F700008F090E0F52FF31B81E05F1708F080E0A8
:100F8000982B619531E0161608F030E0E62FE91B4A
:100F900081E06E1708F080E0382B719541E017165C
:100FA00008F040E0572F531B81E0751708F080E0F0
:100FB000482B892D819591E0181608F090E0682E55
:100FC000641A462D31E0861508F030E0932B882D09
:100FD0008195891B2983BA83AB83FC83ED835E8370
:100FE0004F8388872FEF3FEF4FEF5FEFE1962CAFF6
:100FF0003DAF4EAF5FAFE1978D859E85AF85B889D8
:10100000B7FF6AC0E1964CAD5DAD6EAD7FADE197C7
:101010004095509560957095E1964CAF5DAF6EAF81
:101020007FAFE197A19481E01A1408F080E0B194B9
:1010300091E01B1408F090E06B2D681B81E0B61660
:1010400008F080E0982BC19421E01C1408F020E007
:101050005C2D591B81E0C51608F080E0282BD19447
:1010600091E01D1408F090E04D2D421B81E0D41654
:1010700008F080E0982BE19421E01E1408F020E0B5
:101080003E2D391B81E0E31608F080E0282BF19417
:1010900091E01F1408F090E07F2D721B272F81E054
:1010A000F71608F080E0982B019511E0101608F073
:1010B00010E0802F891B982F81E0091708F080E04D
:1010C000182B872D8195811BA9866A875B874C87A2
:1010D0003D872E879F87888B99812A813B814C8110
:1010E0005D816E817F81A885B9851A850B85FC8419
:1010F000ED84DE84CF84B88888E0E1E18E2E912CE7
:101100008C0E9D1EF401682E11926A94E9F7998B5A
:101110002A8B3B8B4C8B5D8B6E8B7F8BA88F9E01BC
:10112000275E3F4FF90111928A95E9F7B98F1A8F1F
:101130000B8FFC8EED8EDE8ECF8EB8A2298C3A8C72
:101140004B8C5C8CED8CFE8C0F8D18A169887A8895
:101150008B889C8821966CAE7DAE8EAE9FAE21971B
:101160006D887E888F88988CE114F1040105110543
:1011700009F0D9C3621473048404950408F057C1BC
:1011800000E0201600E0300601E0400600E05006D6
:1011900088F41FEF211631044104510439F030F076
:1011A00048E0E42EF12C012D112D18C0EE24FF246F
:1011B000870114C020E0221620E0320620E042061B
:1011C00021E0520630F038E1E32EF12C012D112DF3
:1011D00005C020E1E22EF12C012D112DD201C1011B
:1011E0000E2C04C0B695A795979587950A94D2F7CB
:1011F00086599F4FDC012C9180E290E0A0E0B0E0A6
:101200008E199F09A00BB10B7C018D01E21AF10828
:1012100001091109E114F10401051105D1F10E2CA8
:1012200004C0220C331C441C551C0A94D2F7A401A0
:1012300093010E2C04C0220F331F441F551F0A9424
:10124000D2F780E290E08E199F0921966CAC7DACBC
:101250008EAC9FAC219704C0969487947794679442
:101260008A95D2F7622A732A842A952A2196ACACF1
:10127000BDACCEACDFAC219704C0AA0CBB1CCC1C0F
:10128000DD1CEA94D2F72196ACAEBDAECEAEDFAE99
:1012900021976201EE24FF242996CCAEDDAEEEAE9E
:1012A000FFAE299792018101207030702D960CAF0E
:1012B0001DAF2EAF3FAF2D97C401B301A70196011B
:1012C0000E940F187B018C01C401B30129962CAD3B
:1012D0003DAD4EAD5FAD29970E940F18C901DA01EF
:1012E0003C014D01C401B3012D962CAD3DAD4EAD79
:1012F0005FAD2D970E94DC179B01AC018701FF2495
:10130000EE242196ACACBDACCEACDFAC2197C601CF
:10131000AA27BB2757016801A82AB92ACA2ADB2AAB
:10132000A216B306C406D506E0F408946108710855
:1013300081089108A20CB31CC41CD51CA214B304D0
:10134000C404D50470F0A216B306C406D50648F44A
:1013500008946108710881089108A20CB31CC41C90
:10136000D51CA21AB30AC40AD50AC601B50129962A
:101370002CAD3DAD4EAD5FAD29970E940F187B019E
:101380008C01C601B50129962CAD3DAD4EAD5FADCA
:1013900029970E940F18C901DA015C016D01C6018D
:1013A000B5012D962CAD3DAD4EAD5FAD2D970E9494
:1013B000DC179B01AC018701FF24EE2421968CAD44
:1013C0009DADAEADBFAD2197A070B070E82AF92AEF
:1013D0000A2B1B2BE216F30604071507C0F408942A
:1013E000A108B108C108D108E20CF31C041D151DA9
:1013F000E214F3040405150550F0E216F3060407A1
:10140000150728F40894A108B108C108D108D30130
:101410009927882786017501E82AF92A0A2B1B2BB0
:101420002596ECAEFDAE0EAF1FAF2597EBC4211491
:1014300031044104510471F461E070E080E090E017
:1014400020E030E040E050E00E940F18C901DA01CE
:101450001C012D0100E0201600E0300601E04006EE
:1014600000E0500688F41FEF2116310441045104B6
:1014700031F028F048E050E060E070E017C040E054
:1014800050E060E070E012C020E0221620E032065A
:1014900020E0420621E0520628F048E150E060E0FA
:1014A00070E004C040E150E060E070E0D201C101B2
:1014B000042E04C0B695A795979587950A94D2F700
:1014C00086599F4FDC012C91E0E2EE2EF12C012D8C
:1014D000112DD801C701841B950BA60BB70B821BDE
:1014E0009109A109B1090097A105B10561F4640151
:1014F0005301A218B308C408D50831E0632E712C3B
:10150000812C912C24C1E3968FAFE397082E04C061
:10151000220C331C441C551C0A94D2F7EE2DE81BF8
:10152000640153010E2E04C0D694C794B794A794B7
:101530000A94D2F7A4019301E3960FACE39704C099
:10154000220F331F441F551F0A94D2F721966CAC0B
:101550007DAC8EAC9FAC21970E2E04C096948794E0
:10156000779467940A94D2F784017301E22AF32AEC
:10157000042B152BE9AEFAAE0BAF1CAF3201882459
:101580009924920181012070307061960CAF1DAFDB
:101590002EAF3FAF6197C601B501A40193010E9430
:1015A0000F187B018C01C601B501A40193010E94B3
:1015B0000F18C901DA0165968CAF9DAFAEAFBFAF12
:1015C0006597BC01CD0161962CAD3DAD4EAD5FADD3
:1015D00061970E94DC179B01AC018701FF24EE2478
:1015E000A9ACBAACCBACDCACC601AA27BB275C016A
:1015F0006D01AE28BF28C02AD12AA216B306C406A0
:10160000D50660F565966CAD7DAD8EAD9FAD6597E9
:10161000615070408040904065966CAF7DAF8EAF5A
:101620009FAF6597A20CB31CC41CD51CA214B304B5
:10163000C404D50498F0A216B306C406D50670F407
:10164000615070408040904065966CAF7DAF8EAF2A
:101650009FAF6597A20CB31CC41CD51CA21AB30A79
:10166000C40AD50AC601B501A40193010E940F184E
:101670007B018C01C601B501A40193010E940F18E2
:10168000C901DA013C014D01C401B30161962CADE1
:101690003DAD4EAD5FAD61970E94DC179B01AC0183
:1016A0008701FF24EE2489AD9AADABADBCADA0702F
:1016B000B07057016801A82AB92ACA2ADB2AA216E3
:1016C000B306C406D506E0F40894610871088108E1
:1016D0009108A20CB31CC41CD51CA214B304C404EE
:1016E000D50470F0A216B306C406D50648F40894D3
:1016F0006108710881089108A20CB31CC41CD51C98
:1017000021968CAD9DADAEADBFAD2197E3960FACEC
:10171000E39704C0880F991FAA1FBB1F0A94D2F732
:1017200021968CAF9DAFAEAFBFAF2197A21AB30A7F
:10173000C40AD50A6596ECACFDAC0EAD1FAD65973D
:10174000D70199278827682A792A8A2A9B2A820121
:101750002227332769960CAF1DAF2EAF3FAF699795
:10176000A2019101407050706D962CAF3DAF4EAF0D
:101770005FAF6D97C601B50169962CAD3DAD4EAD1D
:101780005FAD69970E940F187B018C01C601B501FE
:1017900069962CAD3DAD4EAD5FAD69970E940F18B7
:1017A000C901DA01A1968CAF9DAFAEAFBFAFA197D3
:1017B000BC01CD016D962CAD3DAD4EAD5FAD6D97CD
:1017C0000E94DC179B01AC018701FF24EE242196C7
:1017D000ACACBDACCEACDFAC2197C601AA27BB2711
:1017E00057016801A82AB92ACA2ADB2AA216B30619
:1017F000C406D50660F5A1966CAD7DAD8EAD9FADEE
:10180000A1976150704080409040A1966CAF7DAF31
:101810008EAF9FAFA197A20CB31CC41CD51CA21401
:10182000B304C404D50498F0A216B306C406D506C2
:1018300070F46150704080409040A1966CAF7DAFD5
:101840008EAF9FAFA197A20CB31CC41CD51CA21ACB
:10185000B30AC40AD50AC601B50169962CAD3DADDF
:101860004EAD5FAD69970E940F187B018C01C601D8
:10187000B50169962CAD3DAD4EAD5FAD69970E9447
:101880000F18C901DA015C016D01C601B5016D9641
:101890002CAD3DAD4EAD5FAD6D970E94DC179B0149
:1018A000AC018701FF24EE2421968CAD9DADAEAD39
:1018B000BFAD2197A070B070E82AF92A0A2B1B2B24
:1018C000E216F30604071507C0F40894A108B1084E
:1018D000C108D108E20CF31C041D151DE214F30429
:1018E0000405150550F0E216F3060407150728F461
:1018F0000894A108B108C108D108A196ECACFDACD0
:101900000EAD1FADA197D7019927882796018501B4
:10191000082B192B2A2B3B2B25960CAF1DAF2EAF76
:101920003FAF259772C26E147F048006910608F4BB
:101930005FC220E0E21620E0F20621E0020720E08C
:10194000120788F43FEFE316F1040105110531F0A9
:1019500028F048E050E060E070E017C040E050E060
:1019600060E070E012C040E0E41640E0F40640E0C1
:10197000040741E0140728F048E150E060E070E01F
:1019800004C040E150E060E070E0D801C701042EDF
:1019900004C0B695A795979587950A94D2F786596E
:1019A0009F4FDC012C9130E2A32EB12CC12CD12C05
:1019B000D601C501841B950BA60BB70B821B9109A1
:1019C000A109B1090097A105B10599F4E614F7043E
:1019D0000805190508F4FEC121966CAC7DAC8EACEF
:1019E0009FAC2197621473048404950408F0F2C13B
:1019F000FFC1E2968FAFE297082E04C0EE0CFF1CE9
:101A0000001F111F0A94D2F76A2D681BD201C10171
:101A1000062E04C0B695A795979587950A94D2F798
:101A20005C016D01AE28BF28C02AD12AADAABEAA8A
:101A3000CFAAD8AE72016101E2960FACE29704C062
:101A4000CC0CDD1CEE1CFF1C0A94D2F7C9AADAAA42
:101A5000EBAAFCAA64015301062E04C0D694C794D5
:101A6000B794A7940A94D2F7D401C301E2960FACBD
:101A7000E29704C0880F991FAA1FBB1F0A94D2F7D0
:101A80002196ECACFDAC0EAD1FAD219704C01695B0
:101A90000795F794E7946A95D2F737014801682AC9
:101AA000792A8A2A9B2A6DA67EA68FA698AAEDA8D7
:101AB000FEA80FA918AD3801882499249801870140
:101AC00020703070A5960CAF1DAF2EAF3FAFA5971D
:101AD000C601B501A40193010E940F187B018C017E
:101AE000C601B501A40193010E940F18C901DA01D2
:101AF0001C012D01C201B101A5962CAD3DAD4EAD2D
:101B00005FADA5970E94DC179B01AC018701FF2404
:101B1000EE24ADA4BEA4CFA4D8A8C601AA27BB2793
:101B200057016801A82AB92ACA2ADB2AA216B306D5
:101B3000C406D50600F5089421083108410851086B
:101B4000EDA8FEA80FA918ADAE0CBF1CC01ED11E7B
:101B5000AE14BF04C006D10670F0A216B306C406C8
:101B6000D50648F408942108310841085108AE0C04
:101B7000BF1CC01ED11EA21AB30AC40AD50AC601D0
:101B8000B501A40193010E940F187B018C01C601CD
:101B9000B501A40193010E940F18C901DA013C01AB
:101BA0004D01C401B301A5962CAD3DAD4EAD5FAD69
:101BB000A5970E94DC179B01AC018701FF24EE244E
:101BC0008DA59EA5AFA5B8A9A070B07057016801FA
:101BD000A82AB92ACA2ADB2AA216B306C406D50641
:101BE00000F5089461087108810891086DA97EA923
:101BF0008FA998ADA60EB71EC81ED91EA616B70689
:101C0000C806D90670F0A216B306C406D50648F475
:101C100008946108710881089108A60EB71EC81EB5
:101C2000D91ED601C501821B930BA40BB50B89A746
:101C30009AA7ABA7BCA7D1019927882764015301B4
:101C4000A82AB92ACA2ADB2A2596ACAEBDAECEAEEA
:101C5000DFAE2597860175012FEF3FEF40E050E0A2
:101C6000E222F32204231523A60166277727AD96E7
:101C70004CAF5DAF6EAF7FAFAD97A9A8BAA8CBA8A8
:101C8000DCA86FEF7FEF80E090E0A622B722C822A9
:101C9000D92289A99AA9ABA9BCA91D01442455241C
:101CA000C801B701A60195010E94DC17A9966CAF87
:101CB0007DAF8EAF9FAFA997C801B701A201910177
:101CC0000E94DC173B014C01AD966CAD7DAD8EAD35
:101CD0009FADAD97A60195010E94DC177B018C0199
:101CE000AD966CAD7DAD8EAD9FADAD97A20191016E
:101CF0000E94DC175B016C01A8019701260D371DBE
:101D0000481D591DA9966CAC7DAC8EAC9FACA997B3
:101D1000C401AA27BB27280F391F4A1F5B1F2E1596
:101D20003F054007510748F4E12CF12C61E0062FF4
:101D3000112DAE0CBF1CC01ED11ECA01AA27BB2785
:101D4000BC01CD016A0D7B1D8C1D9D1D69A47AA46B
:101D50008BA49CA4661677068806990650F1661532
:101D600077058805990509F04DC0D901992788277D
:101D7000A9962CAD3DAD4EAD5FADA99740705070AA
:101D8000820F931FA41FB51F21962CAD3DAD4EAD04
:101D90005FAD2197E2960FACE29704C0220F331F8C
:101DA000441F551F0A94D2F7281739074A075B07C3
:101DB00048F525960CAD1DAD2EAD3FAD25970150D4
:101DC00010402040304025960CAF1DAF2EAF3FAFE6
:101DD000259718C066247724430121E030E040E0D5
:101DE00050E025962CAF3DAF4EAF5FAF25970DC0AD
:101DF00066247724430125961CAE1DAE1EAE1FAE91
:101E0000259703C0662477244301FE01B19688E03C
:101E1000DF011D928A95E9F72596ACACBDACCEAC3E
:101E2000DFAC2597A9A2BAA2CBA2DCA26DA27EA2AA
:101E30008FA298A622962FAD22973AA14BA15CA122
:101E4000662D7EA1DFA098A5E196ECACFDAC0EADB1
:101E50001FADE197E114F1040105110509F456C025
:101E6000219581E0121608F080E03195E1E013162B
:101E700008F0E0E0932E981A81E0391508F080E030
:101E8000E82B4195F1E0141608F0F0E0A42EAE1A0C
:101E900081E04A1508F080E0F82B5195E1E0151635
:101EA00008F0E0E0B52EBF1A81E05B1508F080E095
:101EB000E82B6195F1E0161608F0F0E0A62FAE1BB6
:101EC00081E06A1708F080E0F82B7195E1E01716C1
:101ED00008F0E0E0C72ECF1A81E07C1508F080E022
:101EE000E82B8D2D8195F1E0181608F0F0E0D82E42
:101EF000DE1AE1E08D1508F0E0E0FE2B892F8195D8
:101F0000392DA5016A2F7C2D982F9F1B8D2DCE5822
:101F1000DF4FE2E10C944D18A7E7B0E0E2E9FFE003
:101F20000C943118982E892E712E88E0FE0131967E
:101F3000DF01682E1D926A94E9F729833A834B8367
:101F40005C836D837E839F829887FE013996DF01D3
:101F50001D928A95E9F7A986BA86CB86DC86ED863E
:101F6000FE860F87188B8D819E81AF81B885B7FD66
:101F700007C0E1961CAE1DAE1EAE1FAEE19764C059
:101F8000219581E0121608F080E0319591E013165A
:101F900008F090E0B32FB81B81E03B1708F080E019
:101FA000982B419531E0141608F030E0A42FA91BBE
:101FB00081E04A1708F080E0382B519591E0151622
:101FC00008F090E0F52FF31B81E05F1708F080E048
:101FD000982B619531E0161608F030E0E62FE91BEA
:101FE00081E06E1708F080E0382B719541E01716FC
:101FF00008F040E0572F531B81E0751708F080E090
:10200000482B892D819591E0181608F090E0682EF4
:10201000641A462D31E0861508F030E0932B882DA8
:102020008195891B2983BA83AB83FC83ED835E830F
:102030004F8388872FEF3FEF4FEF5FEFE1962CAF95
:102040003DAF4EAF5FAFE1978D859E85AF85B88977
:10205000B7FF5AC0A19481E01A1408F080E0B1944F
:1020600091E01B1408F090E06B2D681B81E0B61620
:1020700008F080E0982BC19421E01C1408F020E0C7
:102080005C2D591B81E0C51608F080E0282BD19407
:1020900091E01D1408F090E04D2D421B81E0D41614
:1020A00008F080E0982BE19421E01E1408F020E075
:1020B0003E2D391B81E0E31608F080E0282BF194D7
:1020C00091E01F1408F090E07F2D721B272F81E014
:1020D000F71608F080E0982B019511E0101608F033
:1020E00010E0802F891B982F81E0091708F080E00D
:1020F000182B872D8195811BA9866A875B874C8762
:102100003D872E879F87888B99812A813B814C81CF
:102110005D816E817F81A885B9851A850B85FC84D8
:10212000ED84DE84CF84B88888E0E9E18E2E912C9E
:102130008C0E9D1EF401682E11926A94E9F7998F16
:102140002A8F3B8F4C8F5D8F6E8F7F8FA8A39E0150
:102150002F5D3F4FF90111928A95E9F7B9A31AA3B0
:102160000BA3FCA2EDA2DEA2CFA2B8A629A03AA0A2
:102170004BA05CA0ADA0BEA0CFA0D8A4498D5A8D25
:102180006B8D7C8DE5964FAFE597E6965FAFE69752
:10219000E7966FAFE797E8967FAFE897E8966CAC65
:1021A0007DAC8EAC9FACE8972D966CAE7DAE8EAEBE
:1021B0009FAE2D978D8D9E8D2F8D38A13C014901AD
:1021C00061966CAE7DAE8EAE9FAE6197A114B104E8
:1021D000C104D10409F028C3621473048404950473
:1021E00008F00EC100E0201600E0300601E04006D5
:1021F00000E0500688F41FEF211631044104510419
:1022000039F030F088E0E82EF12C012D112D18C0A6
:10221000EE24FF24870114C020E0221620E03206BD
:1022200020E0420621E0520630F0B8E1EB2EF12C1E
:10223000012D112D05C0A0E1EA2EF12C012D112D4B
:10224000D201C1010E2C04C0B695A795979587952C
:102250000A94D2F786599F4FDC012C9180E290E0DE
:10226000A0E0B0E08E199F09A00BB10B5C016D01DD
:10227000A21AB108C108D1086596ACAEBDAECEAE0B
:10228000DFAE6597A114B104C104D10409F445C0BF
:1022900062966FAD6297062E04C0220C331C441C5C
:1022A000551C0A94D2F7A4019301062E04C0220FF4
:1022B000331F441F551F0A94D2F780E290E08A1919
:1022C0009B09E896CCACDDACEEACFFACE89704C063
:1022D000F694E794D794C7948A95D2F7870176014C
:1022E000E22AF32A042B152B6196ECAEFDAE0EAF5D
:1022F0001FAF6197E8960CAD1DAD2EAD3FADE897D1
:1023000004C0000F111F221F331F6A95D2F72D96AC
:102310000CAF1DAF2EAF3FAF2D973201882499240B
:10232000A20191014070507069962CAF3DAF4EAF45
:102330005FAF699761966CAD7DAD8EAD9FAD6197D6
:10234000A40193010E940F187B018C0161966CAD72
:102350007DAD8EAD9FAD6197A40193010E940F18D2
:10236000CA01B90169962CAD3DAD4EAD5FAD69971F
:102370000E94DC179B01AC018701FF24EE242D96FF
:10238000ACACBDACCEACDFAC2D97C601AA27BB2749
:1023900057016801A82AB92ACA2ADB2AA216B3065D
:1023A000C406D50690F4A20CB31CC41CD51CA21400
:1023B000B304C404D50448F0A216B306C406D50677
:1023C00020F4A20CB31CC41CD51CA21AB30AC40A64
:1023D000D50AC601B501A40193010E940F187B0123
:1023E0008C01C601B501A40193010E940F18CA0116
:1023F000B90169962CAD3DAD4EAD5FAD6997C8C1D1
:10240000211431044104510471F461E070E080E072
:1024100090E020E030E040E050E00E940F18C90159
:10242000DA011C012D0100E0201600E0300601E079
:10243000400600E0500688F41FEF211631044104E5
:10244000510439F030F068E0E62EF12C012D112D09
:1024500018C0EE24FF24870114C020E0221620E0DB
:10246000320620E0420621E0520630F058E1E52E27
:10247000F12C012D112D05C040E1E42EF12C012D90
:10248000112DD201C1010E2C04C0B695A7959795C8
:1024900087950A94D2F786599F4FDC012C9130E240
:1024A000A32EB12CC12CD12CD601C5018E199F09A8
:1024B000A00BB10B7C018D01E21AF1080109110991
:1024C0006596ECAEFDAE0EAF1FAF6597E114F1045B
:1024D0000105110539F464015301A218B308C408B9
:1024E000D508ECC06296FFAC6297E496FFAEE49725
:1024F0000F2C04C0220C331C441C551C0A94D2F728
:102500008A2D8F1964015301082E04C0D694C794F4
:10251000B794A7940A94D2F7A401930104C0220FA0
:10252000331F441F551FFA94D2F7E8966CAC7DAC6C
:102530008EAC9FACE89704C0969487947794679488
:102540008A95D2F784017301E22AF32A042B152B12
:102550002996ECAEFDAE0EAF1FAF2997320188244D
:10256000992492018101207030706D960CAF1DAFDF
:102570002EAF3FAF6D97C601B501A40193010E9434
:102580000F187B018C01C601B501A40193010E94C3
:102590000F18CA01B9016D962CAD3DAD4EAD5FADC2
:1025A0006D970E94DC179B01AC018701FF24EE248C
:1025B0002996ACACBDACCEACDFAC2997C601AA273E
:1025C000BB275C016D01AE28BF28C02AD12AA21604
:1025D000B306C406D50690F4A20CB31CC41CD51CCB
:1025E000A214B304C404D50448F0A216B306C4066A
:1025F000D50620F4A20CB31CC41CD51CA21AB30A25
:10260000C40AD50AC601B501A40193010E940F189E
:102610007B018C01C601B501A40193010E940F1832
:10262000CA01B9016D962CAD3DAD4EAD5FAD6D9754
:102630000E94DC179B01AC018701FF24EE24299640
:102640008CAD9DADAEADBFAD2997A070B0705701F8
:102650006801A82AB92ACA2ADB2AA216B306C40628
:10266000D50690F4A20CB31CC41CD51CA214B30450
:10267000C404D50448F0A216B306C406D50620F457
:10268000A20CB31CC41CD51CE896ECACFDAC0EAD82
:102690001FADE897E4960FACE49704C0EE0CFF1C66
:1026A000001F111F0A94D2F72D96ECAEFDAE0EAFAF
:1026B0001FAF2D97A21AB30AC40AD50A3201882483
:1026C00099249201810120703070A1960CAF1DAF4A
:1026D0002EAF3FAFA197C601B501A40193010E949F
:1026E0000F187B018C01C601B501A40193010E9462
:1026F0000F18CA01B901A1962CAD3DAD4EAD5FAD2D
:10270000A1970E94DC179B01AC018701FF24EE24F6
:102710002D96ACACBDACCEACDFAC2D97C601AA27D4
:10272000BB2757016801A82AB92ACA2ADB2AA216A0
:10273000B306C406D50690F4A20CB31CC41CD51C69
:10274000A214B304C404D50448F0A216B306C40608
:10275000D50620F4A20CB31CC41CD51CA21AB30AC3
:10276000C40AD50AC601B501A40193010E940F183D
:102770007B018C01C601B501A40193010E940F18D1
:10278000CA01B901A1962CAD3DAD4EAD5FADA1978B
:102790000E94DC179B01AC018701FF24EE242D96DB
:1027A0008CAD9DADAEADBFAD2D97A070B070E82AD9
:1027B000F92A0A2B1B2BE216F3060407150790F4DF
:1027C000E20CF31C041D151DE214F30404051505A9
:1027D00048F0E216F3060407150720F4E20CF31C98
:1027E000041D151DE21AF30A040B150BD801C701CD
:1027F00062960FAC629704C0B695A795979587959A
:102800000A94D2F789A79AA7ABA7BCA71DA61EA6B4
:102810001FA618AA898B8AA58A8B8BA58B8B8CA562
:102820008C8B8DA58D8B2FC36A147B048C049D0427
:1028300048F4498B5A8B6B8B7C8B8D8B9E8B2F8BAB
:10284000388F27C300E0A01600E0B00601E0C00604
:1028500000E0D00688F41FEFA116B104C104D10432
:1028600039F030F028E0E22EF12C012D112D18C0A6
:10287000EE24FF24870114C020E0A21620E0B20657
:1028800020E0C20621E0D20630F098E1E92EF12CDA
:10289000012D112D05C080E1E82EF12C012D112D07
:1028A000D601C5010E2C04C0B695A79597958795BE
:1028B0000A94D2F786599F4FDC012C9180E290E078
:1028C000A0E0B0E08E199F09A00BB10B821B91090B
:1028D000A109B1090097A105B10509F059C0A614D5
:1028E000B704C804D90470F0E896ECACFDAC0EADAA
:1028F0001FADE897E214F3040405150518F4D80198
:10290000C7012FC0E8968CAD9DADAEADBFADE897C9
:1029100082199309A409B509A40193012A193B0955
:102920004C095D09AA24BB246501E8966CAC7DAC1A
:102930008EAC9FACE897681679068A069B0628F449
:1029400011E0A12EB12CC12CD12C79018A01EA18F9
:10295000FB080C091D096196ECAEFDAE0EAF1FAF72
:10296000619789A79AA7ABA7BCA761960CAD1DADCF
:102970002EAD3FAD61970DA71EA72FA738AB898B52
:102980008AA58A8B8BA58B8B8CA58C8B0D8B7BC2A0
:10299000E3968FAFE397A6019501082E04C0220F9E
:1029A000331F441F551F0A94D2F710E2181BE296FA
:1029B0001FAFE297D201C101012E04C0B695A795C1
:1029C000979587950A94D2F75C016D01A22AB32AE4
:1029D000C42AD52A2596ACAEBDAECEAEDFAE2597C5
:1029E00072016101E3960FACE39704C0CC0CDD1CCF
:1029F000EE1CFF1C0A94D2F72196CCAEDDAEEEAEF3
:102A0000FFAE219764015301012E04C0D694C794F0
:102A1000B794A7940A94D2F7A4019301E3960FAC5C
:102A2000E39704C0220F331F441F551F0A94D2F7A7
:102A3000E8968CAD9DADAEADBFADE89704C0B69540
:102A4000A795979587951A95D2F77C018D01E22A73
:102A5000F32A042B152BE9AEFAAE0BAF1CAFE896A8
:102A60000CAD1DAD2EAD3FADE897E3960FACE397EF
:102A700004C0000F111F221F331F0A94D2F70DABA1
:102A80001EAB2FAB38AF25962CAD3DAD4EAD5FAD37
:102A900025973A018824992440705070A5962CAF50
:102AA0003DAF4EAF5FAFA597C601B501A40193013D
:102AB0000E940F187B018C01C601B501A40193018E
:102AC0000E940F18C901DA011C012D01C201B101D8
:102AD000A5962CAD3DAD4EAD5FADA5970E94DC1720
:102AE0009B01AC018701FF24EE24A9ACBAACCBACAE
:102AF000DCACC601AA27BB2757016801A82AB92A5E
:102B0000CA2ADB2AA216B306C406D50610F5089415
:102B100021083108410851082596ECACFDAC0EADFA
:102B20001FAD2597AE0CBF1CC01ED11EAE14BF0436
:102B3000C006D10670F0A216B306C406D50648F446
:102B400008942108310841085108AE0CBF1CC01E72
:102B5000D11EA21AB30AC40AD50AC601B501A4013E
:102B600093010E940F187B018C01C601B501A401DD
:102B700093010E940F18C901DA013C014D01C40103
:102B8000B301A5962CAD3DAD4EAD5FADA5970E94AE
:102B9000DC179B01AC018701FF24EE2489AD9AADBF
:102BA000ABADBCADA070B07057016801A82AB92ABE
:102BB000CA2ADB2AA216B306C406D50610F5089465
:102BC000610871088108910825966CAD7DAD8EADC8
:102BD0009FAD2597A60EB71EC81ED91EA616B7060E
:102BE000C806D90670F0A216B306C406D50648F486
:102BF00008946108710881089108A60EB71EC81EC6
:102C0000D91ED601C501821B930BA40BB50B89AB52
:102C10009AABABABBCABD101992788278401730178
:102C2000E82AF92A0A2B1B2B8FEFA82E8FEFB82E3C
:102C3000C12CD12CAE20BF20C022D1227801002788
:102C4000112721966CAC7DAC8EAC9FAC21972FEFF9
:102C50003FEF40E050E062227322842295222196C9
:102C60006CAD7DAD8EAD9FAD2197AC01662777270A
:102C7000AD964CAF5DAF6EAF7FAFAD97C601B501FE
:102C8000A40193010E94DC17A9966CAF7DAF8EAFB3
:102C90009FAFA997C601B501AD962CAD3DAD4EAD28
:102CA0005FADAD970E94DC171B012C01C801B70175
:102CB000A40193010E94DC175B016C01C801B701FC
:102CC000AD962CAD3DAD4EAD5FADAD970E94DC171E
:102CD0007B018C01A6019501220D331D441D551D5C
:102CE000A9966CAC7DAC8EAC9FACA997C401AA2709
:102CF000BB27280F391F4A1F5B1F2A153B054C05B0
:102D00005D0548F4812C912CE1E0AE2EB12CE80C4D
:102D1000F91C0A1D1B1DCA01AA27BB275701680100
:102D2000A80EB91ECA1EDB1EA90133272227A996A9
:102D30008CAD9DADAEADBFADA997A070B070280FA2
:102D4000391F4A1F5B1FE9A8FAA80BA91CA9EA149E
:102D5000FB040C051D0570F0AE14BF04C006D106BF
:102D600089F56DA97EA98FA998AD621773078407AD
:102D7000950740F5DA01C90121966CAC7DAC8EACAB
:102D80009FAC219786199709A809B9092596ECAC3B
:102D9000FDAC0EAD1FAD2597AE18BF08C00AD10A15
:102DA000EE24FF248701281739074A075B0728F418
:102DB00021E0E22EF12C012D112DAE18BF08C00A22
:102DC000D10A02C0DA01C9016DA87EA88FA898AC0B
:102DD000681A790A8A0A9B0A09A91AA92BA93CA987
:102DE0000A191B092C093D095801690122243324C1
:102DF00021012DA93EA94FA958AD26153705480533
:102E0000590528F481E0282E312C412C512C8601C3
:102E10007501E218F30804091509A8019701E29663
:102E20000FACE29704C0220F331F441F551F0A94B2
:102E3000D2F7D401C301E3960FACE39704C0B69573
:102E4000A795979587950A94D2F7282B392B4A2B6B
:102E50005B2B29A73AA74BA75CA7E3960FACE39798
:102E600004C016950795F794E7940A94D2F7EDA657
:102E7000FEA60FA718AB298B8AA58A8B8BA58B8BF7
:102E80008CA58C8BED8A8EA58E8B8FA58F8B88A9B8
:102E9000888FE1964CAD5DAD6EAD7FADE19741158C
:102EA00051056105710509F467C089892A893B8943
:102EB0004C895D89AE89BF89188DF82FF19591E015
:102EC0001F1608F090E0822F819521E0181608F077
:102ED00020E0E82FE91B91E08E1708F090E0292B05
:102EE000832F819531E0181608F030E0782F721B9F
:102EF00091E0871708F090E0392B842F819521E02D
:102F0000181608F020E0682F631B91E0861708F080
:102F100090E0292B852F819531E0181608F030E0DC
:102F2000582F521B91E0851708F090E0392B8A2F1B
:102F3000819521E0181608F020E0482F431B91E00E
:102F4000841708F090E0292B8B2F819591E01816BB
:102F500008F090E0382F321B21E0831708F020E0C2
:102F6000922B812F8195891BF98BEA8B7B8B6C8B44
:102F70005D8B4E8B3F8B888F29893A894B895C8981
:102F80006D897E898F89988DC958DF4FE2E10C9455
:102F90004D1897FB092E07260AD077FD04D02BD0B9
:102FA00006D000201AF4709561957F4F0895F6F7CA
:102FB000909581959F4F0895629FD001739FF00176
:102FC000829FE00DF11D649FE00DF11D929FF00DB9
:102FD000839FF00D749FF00D659FF00D9927729FF0
:102FE000B00DE11DF91F639FB00DE11DF91FBD017B
:102FF000CF0111240895AA1BBB1B51E107C0AA1FD2
:10300000BB1FA617B70710F0A61BB70B881F991F89
:103010005A95A9F780959095BC01CD010895A1E23C
:103020001A2EAA1BBB1BFD010DC0AA1FBB1FEE1F42
:10303000FF1FA217B307E407F50720F0A21BB30B8D
:10304000E40BF50B661F771F881F991F1A9469F709
:1030500060957095809590959B01AC01BD01CF0165
:1030600008952F923F924F925F926F927F928F922C
:103070009F92AF92BF92CF92DF92EF92FF920F9307
:103080001F93CF93DF93CDB7DEB7CA1BDB0B0FB611
:10309000F894DEBF0FBECDBF09942A8839884888CE
:1030A0005F846E847D848C849B84AA84B984C88464
:1030B000DF80EE80FD800C811B81AA81B981CE0F5B
:1030C000D11D0FB6F894DEBF0FBECDBFED01089540
:0430D000F894FFCFA2
:1030D400556E646566696E6564000001020203034F
:1030E4000303040404040404040405050505050598
:1030F4000505050505050505050506060606060676
:10310400060606060606060606060606060606065B
:103114000606060606060606060607070707070745
:10312400070707070707070707070707070707072B
:10313400070707070707070707070707070707071B
:10314400070707070707070707070707070707070B
:1031540007070707070707070707080808080808F5
:1031640008080808080808080808080808080808DB
:1031740008080808080808080808080808080808CB
:1031840008080808080808080808080808080808BB
:1031940008080808080808080808080808080808AB
:1031A400080808080808080808080808080808089B
:1031B400080808080808080808080808080808088B
:1031C400080808080808080808080808080808087B
:0A31D40008080808080808080808A1
:00000001FF
