:100000000C942A000C9434000C9434000C943400AA
:100010000C9434000C9434000C9434000C94340090
:100020000C9434000C9434000C9434000C94340080
:100030000C9434000C9434000C9434000C94340070
:100040000C9434000C9434000C9434000C94340060
:100050000C94340011241FBECFE5D8E0DEBFCDBF25
:100060000E94B2020C943D030C9400002F923F9228
:100070004F925F926F927F928F929F92AF92BF92B8
:10008000CF92DF92EF92FF920F931F93DF93CF9364
:10009000CDB7DEB763970FB6F894DEBF0FBECDBF06
:1000A0001B8A1A8A2FE7D22E8FEF89838A838B834C
:1000B00091E09C831D821E821F82EE24EA943324E9
:1000C0003A94EDEFE9878A879B871C861D861E86FA
:1000D000FF24FA9499249A94772473949EEF592ECE
:1000E000222423941F86188A198A1FE780E8C82EC5
:1000F000BB24BA94AA24AA94882483946624442412
:100100001886FFEFF8BBD2BA8AEF90E00197F1F7BB
:1001100018BA89E888BB12BB8AEF90E00197F1F723
:1001200018BAF8BBE2BA8AEF90E00197F1F718BA73
:1001300090E998BBF2BA8AEF90E00197F1F718BA0C
:100140002D2D39814A815B816C817D818E819F81DA
:1001500097FF32C02D2D2F5F81E02D1508F080E034
:100160003981380F81E0E9813E1708F080E04A814B
:10017000480F81E0FA814F1708F080E05B81580F4B
:1001800081E09B81591708F080E06C81680F81E065
:10019000EC816E1708F080E07D81780F81E0FD81B1
:1001A0007F1708F080E09E81890F91E0EE818E1725
:1001B00008F090E0FF819F0F01E00E94B802D22E6C
:1001C00039834A835B836C837D838E839F83212F56
:1001D0003C2D4B2D5A2D682D762D842D988597FF1B
:1001E0002BC0212F2F5F81E0211708F080E0382FEE
:1001F0003C0D81E03C1508F080E0482F4B0D81E07C
:100200004B1508F080E0582F5A0D81E05A1508F080
:1002100080E0682F680D81E0681508F080E0782F95
:10022000760D81E0761508F080E0840D91E084156C
:1002300008F090E0E8859E0F01E00E94B802122FBE
:10024000C32EB42EA52E862E672E482E98872E2DCF
:10025000332D49855A856B857C858D859E8597FFD5
:1002600031C02E2D2F5F81E02E1508F080E0382F51
:10027000330D81E0331508F080E04985480F81E0B7
:10028000F9854F1708F080E05A85580F81E09A856C
:10029000591708F080E06B85680F81E0EB856E17D9
:1002A00008F080E07C85780F81E0FC857F1708F0FE
:1002B00080E09D85890F91E0ED858E1708F090E034
:1002C000FE859F0F01E00E94B802E22E332E49877F
:1002D0005A876B877C878D879E872F2D392D472DD9
:1002E000552D622D7F858889998997FF2DC02F2DE7
:1002F0002F5F81E02F1508F080E0382F390D81E065
:10030000391508F080E0482F470D81E0471508F0C7
:1003100080E0582F550D81E0551508F080E0682FDA
:10032000620D81E0621508F080E07F85780F81E042
:100330009F85791708F080E0E8898E0F91E08E178D
:1003400008F090E0F9899F0F01E00E94B802F22EB8
:10035000932E742E552E262E7F87888B998B84EDB5
:1003600090E30197F1F78A899B8901969B8B8A8B91
:100370000F9709F0C6CE63960FB6F894DEBF0FBE96
:10038000CDBFCF91DF911F910F91FF90EF90DF9044
:10039000CF90BF90AF909F908F907F906F905F9025
:1003A0004F903F902F9008952F923F924F925F92DF
:1003B0006F927F928F929F92AF92BF92CF92DF9275
:1003C000EF92FF920F931F93DF93CF9300D00F9282
:1003D000CDB7DEB71B821A826FE7F62EBB24BA9424
:1003E0005FE7952E772455244424332419821FE790
:1003F00040E8E42E3FE7D32ECC24AA2488246624A8
:1004000022248FEF88BBF2BA8AEF90E00197F1F7D0
:1004100018BA90E998BB12BB8AEF90E00197F1F708
:1004200018BA2F2D3B2D492D572D652D742D832D59
:10043000998197FF2BC02F2D2F5F81E02F1508F09A
:1004400080E0382F3B0D81E03B1508F080E0482F1D
:10045000490D81E0491508F080E0582F570D81E0E3
:10046000571508F080E0682F650D81E0651508F0EC
:1004700080E0782F740D81E0741508F080E0830D22
:1004800091E0831508F090E0E9819E0F01E00E9461
:10049000B802F22EB32E942E752E562E472E382EDD
:1004A0009983212F3E2D4D2D5C2D6A2D782D862D83
:1004B000922D27FE2AC0212F2F5F81E0211708F0FF
:1004C00080E0382F3E0D81E03E1508F080E0482F97
:1004D0004D0D81E04D1508F080E0582F5C0D81E056
:1004E0005C1508F080E0682F6A0D81E06A1508F05D
:1004F00080E0782F780D81E0781508F080E0860D97
:1005000091E0861508F090E0920D01E00E94B8029B
:10051000122FE32ED42EC52EA62E872E682E292E1E
:1005200084ED90E30197F1F78A819B8101969B838B
:100530008A830F9709F065CF0F900F900F90CF919E
:10054000DF911F910F91FF90EF90DF90CF90BF90C0
:10055000AF909F908F907F906F905F904F903F9063
:100560002F9008958FEF87BB81BB0E943600FDCF8F
:10057000EF92FF920F93DF93CF93CDB7DEB76097E3
:100580000FB6F894DEBF0FBECDBFA82F002309F42D
:1005900067C07E010894E11CF11C88E0F70111920C
:1005A0008A95E9F729833A834B835C836D837E8345
:1005B000AF83988780E2801B4D815E816F81788553
:1005C000E82FFF27E7FDF0951816B4F0DB01CA010C
:1005D000BB0F880B982FDC018D879E87AF87B88B68
:1005E000882799278E1B9F0B04C075956795579593
:1005F00047958A95D2F728C0202F332727FD3095BD
:10060000DB01CA01022E04C0B595A7959795879581
:100610000A94D2F78D879E87AF87B88B04C0440FAA
:10062000551F661F771FEA95D2F789819A81AB81A2
:10063000BC8104C0B695A795979587952A95D2F762
:10064000482B592B6A2B7B2B49875A876B877C87D2
:1006500029853A854B855C856D857E85AF85988932
:100660008A2F60960FB6F894DEBF0FBECDBFCF9134
:0E067000DF910F91FF90EF900895F894FFCF67
:00000001FF
